:02000000FE2FD1
:100F82001A3083129300150808008B170B17703064
:100F920083168F001530850008000C30F0007008B1
:100FA2008312950433308316920004308312920028
:100FB2008C1CD92F831605110800C627CE27C127FE
:100FC2008312051583160511831205154130F600AB
:100FD200EE30F500F50BEB2FF60BEB2F000083162E
:100FE2000515831205114130F600EE30F500F50BC0
:0E0FF200F82FF60BF82F0000E32F8301DE2FFF
:02400E00FDFFB4
:00000001FF
